:020000040800F2
:1000000000300020F9490008D10A0008D50A00088C
:10001000D90A0008DD0A0008E10A00080000000013
:10002000000000000000000000000000E50A0008D9
:10003000E90A000800000000ED0A0008F10A0008C3
:10004000554A0008554A0008554A0008554A000814
:10005000554A0008554A0008554A0008554A000804
:10006000554A0008554A0008554A00080D0B00087B
:100070001D0B0008554A00082D0B00083D0B000819
:10008000554A0008554A00084D0B0008554A00081B
:10009000554A0008554A0008554A0008554A0008C4
:1000A000554A0008554A0008554A0008554A0008B4
:1000B000FD0A0008554A000800000000554A0008E3
:1000C000554A00080000000000000000554A0008E2
:1000D00000000000554A0008554A0008554A00082B
:1000E000554A0008554A00080000000000000000C2
:1000F0000000000000000000000000000000000000
:1001000000000000000000000000000000000000EF
:100110000000000000000000554A0008554A000891
:1001200000000000000000000000000000000000CF
:1001300000000000000000000000000000000000BF
:10014000554A0008554A000800000000554A0008BA
:10015000554A0008554A0008554A0008554A000803
:10016000554A0008554A0008000000000000000041
:10017000000000000000000000000000000000007F
:0801800000000000554A0008D0
:1001880010B5054C237833B9044B13B10448AFF3C9
:1001980000800123237010BDA00000200000000093
:1001A8004870000808B5064B1BB106480649AFF36E
:1001B80000800648036813B1054B03B1984708BD92
:1001C8000000000048700008A4000020A0000020E3
:1001D8000000000081F0004102E000BF83F000430E
:1001E80030B54FEA41044FEA430594EA050F08BFCA
:1001F80090EA020F1FBF54EA000C55EA020C7FEA8E
:10020800645C7FEA655C00F0E2804FEA5454D4EB0A
:100218005555B8BF6D420CDD2C4480EA020281EAD4
:10022800030382EA000083EA010180EA020281EA0C
:100238000303362D88BF30BD11F0004F4FEA01315E
:100248004FF4801C4CEA113102D0404261EB41016D
:1002580013F0004F4FEA03334CEA133302D05242F3
:1002680063EB430394EA050F00F0A780A4F10104AF
:10027800D5F1200E0DDB02FA0EFC22FA05F28018E9
:1002880041F1000103FA0EF2801843FA05F35941CF
:100298000EE0A5F120050EF1200E012A03FA0EFC4E
:1002A80028BF4CF0020C43FA05F3C01851EBE37178
:1002B80001F0004507D54FF0000EDCF1000C7EEB95
:1002C80000006EEB0101B1F5801F1BD3B1F5001FD3
:1002D8000CD349085FEA30004FEA3C0C04F10104F2
:1002E8004FEA445212F5800F80F09A80BCF1004F1B
:1002F80008BF5FEA500C50F1000041EB045141EA9D
:10030800050130BD5FEA4C0C404141EB010111F49D
:10031800801FA4F10104E9D191F0000F04BF014648
:100328000020B1FA81F308BF2033A3F10B03B3F126
:1003380020020CDA0C3208DD02F1140CC2F10C02B6
:1003480001FA0CF021FA02F10CE002F11402D8BF14
:10035800C2F1200C01FA02F120FA0CFCDCBF41EAE0
:100368000C019040E41AA2BF01EB0451294330BDAF
:100378006FEA04041F3C1CDA0C340EDC04F114048C
:10038800C4F1200220FA04F001FA02F340EA030063
:1003980021FA04F345EA030130BDC4F10C04C4F1A9
:1003A800200220FA02F001FA04F340EA0300294689
:1003B80030BD21FA04F0294630BD94F0000F83F4D3
:1003C800801306BF81F480110134013D4EE77FEAB6
:1003D800645C18BF7FEA655C29D094EA050F08BF02
:1003E80090EA020F05D054EA000C04BF19461046E3
:1003F80030BD91EA030F1EBF0021002030BD5FEA27
:10040800545C05D14000494128BF41F0004130BD4E
:1004180014F580043CBF01F5801130BD01F00045A2
:1004280045F0FE4141F470014FF0000030BD7FEA15
:10043800645C1ABF194610467FEA655C1CBF0B4610
:10044800024650EA013406BF52EA033591EA030F27
:1004580041F4002130BD00BF90F0000F04BF00211F
:10046800704730B54FF4806404F132044FF0000552
:100478004FF0000150E700BF90F0000F04BF0021CB
:10048800704730B54FF4806404F1320410F0004531
:1004980048BF40424FF000013EE700BF42004FEA2C
:1004A800E2014FEA31014FEA02701FBF12F07F43A9
:1004B80093F07F4F81F06051704792F0000F14BFA6
:1004C80093F07F4F704730B54FF4607401F00045EA
:1004D80021F0004120E700BF50EA010208BF704741
:1004E80030B54FF000050AE050EA010208BF704736
:1004F80030B511F0004502D5404261EB41014FF49F
:10050800806404F132045FEA915C3FF4DCAE4FF0A2
:1005180003025FEADC0C18BF03325FEADC0C18BF89
:10052800033202EBDC02C2F1200300FA03FC20FADA
:1005380002F001FA03FE40EA0E0021FA02F1144427
:10054800C1E600BF70B54FF0FF0C4CF4E06C1CEA3C
:1005580011541DBF1CEA135594EA0C0F95EA0C0FB1
:1005680000F0DEF82C4481EA030621EA4C5123EA24
:100578004C5350EA013518BF52EA033541F4801153
:1005880043F4801338D0A0FB02CE4FF00005E1FB06
:1005980002E506F00042E0FB03E54FF00006E1FB50
:1005A80003569CF0000F18BF4EF0010EA4F1FF0493
:1005B800B6F5007F64F5407404D25FEA4E0E6D41D3
:1005C80046EB060642EAC62141EA55514FEAC520E4
:1005D80040EA5E504FEACE2EB4F1FD0C88BFBCF560
:1005E800E06F1ED8BEF1004F08BF5FEA500E50F111
:1005F800000041EB045170BD06F0004646EA0101D7
:1006080040EA020081EA0301B4EB5C04C2BFD4EB08
:100618000C0541EA045170BD41F480114FF0000E01
:10062800013C00F3AB8014F1360FDEBF002001F06F
:10063800004170BDC4F10004203C35DA0C341BDCE9
:1006480004F11404C4F1200500FA05F320FA04F0BB
:1006580001FA05F240EA020001F0004221F00041EF
:1006680010EBD37021FA04F642EB06015EEA430E62
:1006780008BF20EAD37070BDC4F10C04C4F1200592
:1006880000FA04F320FA05F001FA04F240EA020045
:1006980001F0004110EBD37041F100015EEA430E16
:1006A80008BF20EAD37070BDC4F1200500FA05F236
:1006B8004EEA020E20FA04F301FA05F243EA0203B5
:1006C80021FA04F001F0004121FA04F220EA0200C4
:1006D80000EBD3705EEA430E08BF20EAD37070BD0A
:1006E80094F0000F0FD101F00046400041EB0101EA
:1006F80011F4801F08BF013CF7D041EA060195F0CC
:10070800000F18BF704703F00046520043EB030385
:1007180013F4801F08BF013DF7D043EA0603704772
:1007280094EA0C0F0CEA135518BF95EA0C0F0CD07D
:1007380050EA410618BF52EA4306D1D181EA0301C3
:1007480001F000414FF0000070BD50EA410606BFBD
:100758001046194652EA430619D094EA0C0F02D102
:1007680050EA013613D195EA0C0F05D152EA033647
:100778001CBF104619460AD181EA030101F0004165
:1007880041F0FE4141F470014FF0000070BD41F0AE
:10079800FE4141F4780170BD70B54FF0FF0C4CF488
:1007A800E06C1CEA11541DBF1CEA135594EA0C0FA7
:1007B80095EA0C0F00F0A7F8A4EB050481EA030EF4
:1007C80052EA03354FEA013100F088804FEA0333DB
:1007D8004FF0805545EA131343EA12634FEA0222A9
:1007E80045EA111545EA10654FEA00260EF000416A
:1007F8009D4208BF964244F1FD0404F5407402D2BC
:100808005B084FEA3202B61A65EB03055B084FEA4C
:1008180032024FF480104FF4002CB6EB020E75EB49
:10082800030E22BFB61A754640EA0C005B084FEA71
:100838003202B6EB020E75EB030E22BFB61A7546EE
:1008480040EA5C005B084FEA3202B6EB020E75EB39
:10085800030E22BFB61A754640EA9C005B084FEAB1
:100868003202B6EB020E75EB030E22BFB61A7546BE
:1008780040EADC0055EA060E18D04FEA051545EAAD
:1008880016754FEA06164FEAC30343EA52734FEA56
:10089800C2025FEA1C1CC0D111F4801F0BD141EACF
:1008A80000014FF000004FF0004CB6E711F4801F34
:1008B80004BF01430020B4F1FD0C88BFBCF5E06F14
:1008C8003FF6AFAEB5EB030C04BFB6EB020C5FEA24
:1008D800500C50F1000041EB045170BD0EF0004E79
:1008E8004EEA113114EB5C04C2BFD4EB0C0541EAAB
:1008F800045170BD41F480114FF0000E013C90E6A8
:1009080045EA060E8DE60CEA135594EA0C0F08BF6B
:1009180095EA0C0F3FF43BAF94EA0C0F0AD150EA6A
:1009280001347FF434AF95EA0C0F7FF425AF1046FD
:1009380019462CE795EA0C0F06D152EA03353FF425
:10094800FDAE1046194622E750EA410618BF52EAA2
:1009580043067FF4C5AE50EA41047FF40DAF52EA76
:1009680043057FF4EBAE12E74FF0FF3C06E000BF13
:100978004FF0010C02E000BF4FF0010C4DF804CD20
:100988004FEA410C7FEA6C5C4FEA430C18BF7FEAE0
:100998006C5C1BD001B050EA410C0CBF52EA430C0E
:1009A80091EA030F02BF90EA020F0020704710F18E
:1009B800000F91EA030F58BF994208BF90422CBF1D
:1009C800D8176FEAE37040F0010070474FEA410C16
:1009D8007FEA6C5C02D150EA013C07D14FEA430C34
:1009E8007FEA6C5CD6D152EA033CD3D05DF8040BA5
:1009F800704700BF8446104662468C4619466346D7
:100A080000E000BF01B5FFF7B7FF002848BF10F1AD
:100A1800000F01BD4DF808EDFFF7F4FF0CBF0120F2
:100A280000205DF808FB00BF4DF808EDFFF7EAFF6E
:100A380034BF012000205DF808FB00BF4DF808ED29
:100A4800FFF7E0FF94BF012000205DF808FB00BF1E
:100A58004DF808EDFFF7CEFF94BF012000205DF8A8
:100A680008FB00BF4DF808EDFFF7C4FF34BF0120B5
:100A780000205DF808FB00BF4FEA410212F50012A2
:100A880015D211D56FF47873B3EB625212D94FEACD
:100A9800C12343F0004343EA505311F0004F23FAB7
:100AA80002F018BF404270474FF00000704750EA0C
:100AB800013005D111F0004008BF6FF000407047C9
:100AC8004FF00000704700BF704700BFFEE700BF4F
:100AD800FEE700BFFEE700BFFEE700BF704700BFAC
:100AE800704700BF704700BF08B501F02FFE01F046
:100AF80001FE08BD08B5024800F0EEF808BD00BFC9
:100B08000805002008B5024801F06CFE08BD00BFCA
:100B18009004002008B5024801F064FE08BD00BF3B
:100B28004805002008B5024801F05CFE08BD00BF7A
:100B38006002002008B5024801F054FE08BD00BF5D
:100B4800F802002008B502F00DFD034801F00EF987
:100B5800024801F00BF908BDA40200207001002032
:100B680010B4036A046A24F001040462846924F05E
:100B7800F00444EA021223F00A0319438261016275
:100B88005DF8044B704700BF30B4046A24F01004C9
:100B980004628569046A25F4407545EA022222F454
:100BA80070451B039BB21D4324F0A004090101F00A
:100BB800A0010C438561046230BC704710B4036A1D
:100BC80023F0100303628469036A24F4704444EA3E
:100BD800023223F0A00343EA0111826101625DF849
:100BE800044B704730B4046A24F480740462C56905
:100BF800046A25F003052A4322F0F0051B01DBB245
:100C08001D4324F42064090201F420610C43C561EA
:100C1800046230BC704700BF30B4046A24F48054C6
:100C28000462C569046A25F4407545EA022222F483
:100C380070451B039BB21D4324F42044090301F4AF
:100C480020410C43C561046230BC7047836823F0BF
:100C5800700341F007010B4383607047022380F85B
:100C68003D3003681A6842F001021A60012380F8D7
:100C78003D300020704700BF704700BF90F83C30FF
:100C8800012B1FD0012380F83C300C2914D8DFE851
:100C980001F0071313130A1313130D131313100082
:100CA80003685A6B09E003689A6B06E00368DA6B1D
:100CB80003E003681A6C00E00022002380F83C304F
:100CC8001046704702207047704700BF704700BF4A
:100CD800704700BF704700BF10B5044603681A6923
:100CE80012F0020F17D0DA6812F0020F13D06FF06B
:100CF80002021A610123037703689B6913F0030F4B
:100D080002D002F037FC04E0FFF7E0FF2046FFF7CF
:100D1800DFFF0023237723681A6912F0040F19D024
:100D2800DA6812F0040F15D06FF004021A6102237A
:100D3800237723689B6913F4407F03D0204602F091
:100D480019FC05E02046FFF7C1FF2046FFF7C0FF6A
:100D58000023237723681A6912F0080F19D0DA687C
:100D680012F0080F15D06FF008021A6104232377D8
:100D78002368DB6913F0030F03D0204602F0FAFB67
:100D880005E02046FFF7A2FF2046FFF7A1FF00235A
:100D9800237723681A6912F0100F19D0DA6812F055
:100DA800100F15D06FF010021A61082323772368FB
:100DB800DB6913F4407F03D0204602F0DBFB05E03B
:100DC8002046FFF783FF2046FFF782FF00232377A3
:100DD80023681A6912F0010F09D0DA6812F0010FBE
:100DE80005D06FF001021A612046FFF76DFF2368F6
:100DF8001A6912F0800F09D0DA6812F0800F05D056
:100E08006FF080021A61204602F0ECF923681A6933
:100E180012F0400F09D0DA6812F0400F05D06FF0D9
:100E280040021A612046FFF755FF23681A6912F03D
:100E3800200F09D0DA6812F0200F05D06FF02002D9
:100E48001A61204602F0CCF910BD00BF0368224A9F
:100E5800904206D0B0F1804F03D0A2F59432904270
:100E680003D123F070034A6813431B4A904212D0FF
:100E7800B0F1804F0FD0A2F5943290420BD002F51A
:100E88009E32904207D002F58062904203D002F56C
:100E98008062904203D123F44073CA68134323F05D
:100EA80080034A691A4302608B68C3620B688362D5
:100EB800094B98420BD003F5A053984207D003F58D
:100EC8008063984203D003F58063984201D10B698F
:100ED8000363012343617047002C014010B50446A9
:100EE800B0B190F83D3013F0FF0F04D1002380F823
:100EF8003C3003F0B3FC022384F83D30214651F81E
:100F0800040BFFF7A3FF012384F83D30002010BD38
:100F1800012010BD10B50446B0B190F83D3013F073
:100F2800FF0F04D1002380F83C30FFF7A5FE022311
:100F380084F83D30214651F8040BFFF787FF012361
:100F480084F83D30002010BD012010BD70B4046A43
:100F580024F0010404628569046A164EB0420CD07C
:100F6800B0F1804F0BD0A6F59436B04209D006F503
:100F78009E36B04207D1012606E0012604E001268C
:100F880002E0012600E000261EB125F003052A43F1
:100F980001E045F0010222F0F0021B01DBB213432D
:100FA80024F00A0201F00A0111438361016270BC56
:100FB800704700BF002C014038B504460D4690F834
:100FC8003C30012B56D0012380F83C30022380F8B6
:100FD8003D3082B9006809686A68EB68FFF7B6FFB8
:100FE80023689A6922F00C029A6123689969AA68B1
:100FF8000A439A6137E0042A11D1006809686A68CF
:10100800EB68FFF7C1FD23689A6922F440629A6190
:1010180023689A69A96842EA01229A6123E0082AAA
:1010280010D1006809686A68EB68FFF7DBFD236880
:10103800DA6922F00C02DA612368D969AA680A43DE
:10104800DA6110E0006809686A68EB68FFF7E4FD98
:101058002368DA6922F44062DA612368DA69A968E8
:1010680042EA0122DA61012384F83D30002084F845
:101078003C0038BD022038BD10B4846824F47F4495
:1010880042EA032319430C4384605DF8044B70471C
:1010980038B504460D4690F83C30012B00F08580A9
:1010A800012380F83C30022380F83D3002689168C3
:1010B8003F4B0B4093602B68402B52D00AD8102B23
:1010C8005ED002D8002B56D068E0202B5DD0302BA4
:1010D80060D063E0702B14D004D8502B2DD0602B37
:1010E80035D05BE0B3F5805F03D0B3F5005F18D06F
:1010F80054E00268936823F4803323F00703936075
:101108004CE00068A9686A68EB68FFF7B5FF2268D9
:10111800936823F4803323F0770343F077039360D5
:101128003CE00068A9686A68EB68FFF7A5FF2368D8
:101138009A6842F480429A6030E000686968EA6818
:10114800FFF70EFD20685021FFF780FD26E00068BC
:101158006968EA68FFF732FD20686021FFF776FDCD
:101168001CE000686968EA68FFF7FAFC206840211B
:10117800FFF76CFD12E000680021FFF767FD0DE046
:1011880000681021FFF762FD08E000682021FFF7E2
:101198005DFD03E000683021FFF758FD012384F866
:1011A8003D30002084F83C0038BD022038BD00BF27
:1011B8008800FEFF10B401238B40046A24EA03036D
:1011C8000362036A8A40134303625DF8044B704765
:1011D80010B504460C291FD8DFE801F0071E1E1EB3
:1011E8000D1E1E1E131E1E1E19000368DA6842F02B
:1011F8000202DA6010E00368DA6842F00402DA609A
:101208000AE00368DA6842F00802DA6004E003687A
:10121800DA6842F01002DA6020680122FFF7CAFF9C
:1012280023681A6842F001021A60002010BD00BF4E
:101238002DE9F00F84B000234FF00108DFF8A8A1D2
:10124800684DC4E008FA03F916EA090600F0BE8002
:101258004A68022A01D0122A13D1DC08083450F84F
:101268002420019203F00707BF000F2202FA07FBB0
:10127800019A22EA0B0B0A69BA4042EA0B0240F8CB
:10128800242007685A004FF0030B0BFA02F4E443DA
:1012980004EA070B4F6807F00307974047EA0B0774
:1012A80007604F6807F1FF3BBBF1010F03D9112F0E
:1012B80001D0122F15D1876827400197CF6807FA08
:1012C80002FB019F4BEA070BC0F808B0476827EA02
:1012D80009094F68C7F3001707FA0CF747EA090727
:1012E8004760C7683C408F6807FA02F22243C26031
:1012F8004A6812F0805F69D0DAF8182042F00102DB
:10130800CAF81820DAF8182002F001020392039AAA
:101318009A08941CDFF8D49059F8247003F0030459
:10132800A4004FF00F0B0BFA04FC27EA0C07B0F1EE
:10133800904F16D0DFF8B8C0604510D0A9F1F82951
:10134800484509D0DFF8ACB0584502D14FF0030C3E
:1013580009E04FF0050C06E04FF0020C03E0C4462C
:1013680001E04FF0000C0CFA04F43C430232DFF8C1
:101378007CC04CF82240D5F800C0F24302EA0C04C5
:101388004F6817F4803F01D046EA0C042C60D5F86A
:1013980004C002EA0C044F6817F4003F01D046EA83
:1013A8000C046C60D5F808C002EA0C044F6817F406
:1013B800801F01D046EA0C04AC60EC6822404F68FC
:1013C80017F4001F01D046EA0402EA6001330E68F0
:1013D8009C4636FA03F97FF435AF04B0BDE8F00F48
:1013E800704700BF000401400010024000000140A7
:1013F80000040048000C00480AB18161704781620E
:10140800704700BF436959404161704738B5044689
:101418008268036942EA030143691943C3691943AE
:1014280002681068634B03400B43136023685968D4
:1014380021F44051E2680A435A60A269236A1A43B8
:101448002368996821F430610A439A6025685A4BE9
:101458009D4212D103F558431B6B03F00303032B82
:1014680009D8DFE803F002040613002313E004237D
:1014780011E008230FE010230DE0504B9D4207D0E8
:1014880003F580639D4205D1002304E0022302E0B6
:10149800002300E01023E269B2F5004F47D1082B82
:1014A8003BD8DFE803F005101B3A263A3A3A3100F8
:1014B80001F03EFE63685A0802EB4000B0FBF3F30C
:1014C8009BB200202BE001F04BFE63685A0802EB48
:1014D8004000B0FBF3F39BB2002020E062685308A1
:1014E80003F5740303F51053B3FBF2F39BB200202A
:1014F80015E001F0DFFC63685A0802EB4000B0FB1E
:10150800F3F39BB200200AE063685A0802F58032C0
:10151800B2FBF3F39BB2002001E00120002323F08B
:101528000F02C3F3420313432268D36038BD082B6C
:101538003DD8DFE803F005101B3C273C3C3C32005B
:1015480001F0F6FD636800EB5300B0FBF3F39BB2C8
:10155800EB60002038BD01F003FE636800EB530028
:10156800B0FBF3F39BB2EB60002038BD6268530810
:1015780003F5F40303F59053B3FBF2F39BB2EB606E
:10158800002038BD01F096FC636800EB5300B0FB07
:10159800F3F39BB2EB60002038BD63685A0802F58C
:1015A8000042B2FBF3F39BB2EB60002038BD012090
:1015B80038BD00BFF369FFEF003801400044004028
:1015C800436A13F0010F06D00368596821F400310B
:1015D800826A0A435A60436A13F0020F06D003680E
:1015E800596821F48031C26A0A435A60436A13F089
:1015F800040F06D00368596821F48021026B0A435E
:101608005A60436A13F0080F06D00368596821F43A
:101618000041426B0A435A60436A13F0100F06D028
:101628000368996821F48051826B0A439A60436A7F
:1016380013F0200F06D00368996821F40051C26B9B
:101648000A439A60436A13F0400F11D0036859683F
:1016580021F48011026C0A435A60036CB3F5801FB1
:1016680006D10368596821F4C001426C0A435A60E4
:10167800436A13F0800F06D003685A6822F40022E8
:10168800816C0A435A6070472DE9F04106460C46C2
:1016980017469846069D1EE0B5F1FF3F1BD02DB1B9
:1016A80001F05CF8C8EB0000A84214D933681A6846
:1016B80022F4D0721A6033689A6822F001029A60A4
:1016C800202386F8693086F86A30002386F8683067
:1016D8000320BDE8F0813168C9692140A14214BFE7
:1016E80000210121B942D7D00020BDE8F08100BF18
:1016F8002DE9F04782B004460D4617461E4690F87D
:101708006910C9B220294FD1002D4FD0002A4FD0DF
:1017180090F86830012B4DD0012380F86830002301
:10172800C366212380F8693001F018F88046A4F8D0
:101738005070A4F852704FF0800A4FF000091EE074
:10174800B4F85230013B9BB2A4F8523000962046C0
:1017580051464A464346FFF797FF68BBA368B3F56F
:10176800805F08D1236933B9236835F8022BC2F3A7
:1017780008021A8503E023682A781A850135B4F827
:101788005270BFB2002FDBD10096204640210022C4
:101798004346FFF779FF034680B9202284F8692081
:1017A800002284F868200AE0022308E0012306E00A
:1017B800012304E0022302E0032300E00323184688
:1017C80002B0BDE8F08700BF30B583B004460023FF
:1017D800C36600F0C3FF05462268126812F0080FBE
:1017E8000AD06FF07E43009320464FF40011002288
:1017F8002B46FFF749FFC0B92268126812F0040FA0
:101808000AD06FF07E43009320464FF480010022F7
:101818002B46FFF739FF50B9202384F8693084F844
:101828006A30002084F8680002E0032000E003200A
:1018380003B030BD10B5044670B390F8693013F0AA
:10184800FF0F04D1002380F8683003F051F82423F7
:1018580084F8693023681A6822F001021A60204669
:10186800FFF7D4FD012818D0636A13B12046FFF7AB
:10187800A7FE23685A6822F490425A6023689A683F
:1018880022F02A029A6023681A6842F001021A605C
:101898002046FFF799FF10BD012010BD38B504465A
:1018A80003689A6802F00302012A05D11A6812F047
:1018B800010F03D1002202E0002200E00122002AE9
:1018C8002FD09A6802F00D02012A0AD19A6842F0D4
:1018D80002029A60236803221A6000F03FFF05465F
:1018E80018E0636C43F010036364A36C43F00103D6
:1018F800A364012038BD00F031FF401B022809D93C
:10190800636C43F010036364A36C43F00103A364A6
:10191800012038BD23689B6813F0010FEBD100202C
:1019280038BD002038BD00BF38B5044603689A6842
:1019380002F00302012A05D11A6812F0010F03D13F
:10194800002202E0002200E001225ABB9968164AF0
:10195800114209D0636C43F010036364A36C43F035
:101968000103A364012038BD9A6842F001029A601D
:1019780000F0F4FE05460EE000F0F0FE401B0228E1
:1019880009D9636C43F010036364A36C43F001034B
:10199800A364012038BD23681B6813F0010FEBD046
:1019A800002038BD002038BD3F00008030B597B01A
:1019B800002300930446002800F0FE80436C13F0D7
:1019C800100F52D1436C002B37D183640365C36475
:1019D80080F8403002F07EFE23689B6813F0805F39
:1019E8002DD12046FFF75AFF636C13F0100F27D153
:1019F80030BB636C23F4885323F0020343F00203E3
:101A0800636423689A6822F040529A6023689A684F
:101A180042F080529A606A4B1A686A4BA3FB021321
:101A28009B0C03EB83035B00009302E0009B013BEC
:101A38000093009B002BF9D102E0002000E0002079
:101A480023689A6812F0805F03D09B6813F0005FE8
:101A58000CD0636C23F0120343F010036364A36C8F
:101A680043F00103A364012000E00020636C13F03D
:101A7800100F40F09980002840F0968023689A68FB
:101A880012F0040F40F09080626C22F4817242F0F0
:101A980002026264B3F1A04F02D14B4A019202E004
:101AA8004FF0A04201929A6802F00302012A05D180
:101AB8001B6813F0010F03D1002302E0002300E0AC
:101AC8000123BBB9019B73B19A6802F00302012A92
:101AD80005D11B6813F0010F03D1002302E0002396
:101AE80000E0012333B9394B996821F44031626829
:101AF8000A439A60E2695303A16B012902D04FF4AB
:101B0800805100E000211943E3680B43A1680B43AF
:101B1800616A012911D132B9A26A013A43EA424302
:101B280043F4803309E0626C22F0220242F0200282
:101B38006264A26C42F00102A264E26A012A02D045
:101B4800216B0A4313432268916811F00C0F0BD1E3
:101B5800D16821F4804121F00201D160A269616B52
:101B6800490041EA823213432168CD68184A2A4065
:101B78001343CB602369012B08D12368196B21F02B
:101B88000F01226A013A0A431A6304E023681A6BB8
:101B980022F00F021A630023A364636C23F003038B
:101BA80043F00103636408E0636C23F0120343F01D
:101BB80010036364012000E0012017B030BD00BFAE
:101BC8000000002083DE1B4300010050000300508A
:101BD80007C0F0FF70B504460D4690F84030012B61
:101BE8003FD0012380F84030FFF758FE0646002812
:101BF80031D10123636423689A6822F080429A6095
:101C0800012D04D123689A6842F080429A602368C3
:101C18009A6842F000429A6000F0A0FD05460FE085
:101C280000F09CFD401B0A280AD9636C23F01203BC
:101C380043F010036364002384F84030012070BD32
:101C480023689B68002BEBDB636C23F0030343F0F2
:101C58000103636400E00126002384F84030304625
:101C680070BD022070BD00BF10B5044603689B68B4
:101C780013F0080F53D190F84030012B52D00123B4
:101C880080F84030FFF750FE0346002843D1626CCD
:101C980022F4405222F0010242F480526264224A45
:101CA800926812F01F0F03D02268B2F1A04F04D13E
:101CB800626C22F48012626403E0626C42F4801267
:101CC8006264626C12F4807F01D10022A264002257
:101CD80084F840202268602111602268D16811F0E0
:101CE800007F1DD11049896811F01F0F0ED00E49D1
:101CF800896801F01F01062908D00B49896801F09D
:101D08001F01072902D0B2F1A04F09D1916841F013
:101D18000801916004E0002284F8402000E00223DA
:101D2800184610BD022010BD00030050032908D03A
:101D3800042902D002290CD107E00368D3F88C00EB
:101D480070470368D3F8880070470368D3F88400A5
:101D580070470368D3F88000704700BF704700BF22
:101D6800704700BF704700BF704700BF10B50446FA
:101D780003681A6812F0040F03D05A6812F0040FAF
:101D880007D11A6812F0080F52D05A6812F0080FDB
:101D98004ED0626C12F0100F03D1626C42F40072E4
:101DA8006264A54A926812F01F0F0ED0A24A926888
:101DB80002F01F02052A08D09F4A926802F01F020B
:101DC800092A02D0B3F1A04F01D1D96802E04FF03F
:101DD800A042D168DA6812F4406F23D111F4005F91
:101DE80020D11A6812F0080F1CD09A6812F0040F5C
:101DF80010D15A6822F00C025A60636C23F4807385
:101E08006364636C13F4805F0CD1636C43F001036B
:101E1800636407E0636C43F010036364A36C43F0EE
:101E28000103A364204602F007F823680C221A6015
:101E380023681A6812F0200F03D05A6812F0200F96
:101E480007D11A6812F0400F71D05A6812F0400F8B
:101E58006DD0626C42F400526264774A926812F064
:101E68001F0F0ED0744A926802F01F02052A08D08C
:101E7800714A926802F01F02092A02D0B3F1A04FFA
:101E880001D1D96802E04FF0A042D168DA6C12F0B3
:101E9800C00F09D011F0007F43D1DA6812F4406F07
:101EA8003FD111F4005F3CD11A6812F0400F38D0CE
:101EB800614A926812F01F0F0ED05F4A926802F0D2
:101EC8001F02062A08D05C4A926802F01F02072AFD
:101ED80002D0B3F1A04F01D1DA6802E04FF0A0427E
:101EE800D26812F4001F1CD19A6812F0080F10D1A2
:101EF8005A6822F060025A60636C23F4805363646A
:101F0800636C13F4807F0CD1636C43F0010363644A
:101F180007E0636C43F010036364A36C43F00103B0
:101F2800A3642046FFF71AFF236860221A6023681B
:101F38001A6812F0800F0DD05B6813F0800F09D07B
:101F4800636C43F480336364204601F077FF2368B1
:101F580080221A6023681A6812F4807F0ED05B68AA
:101F680013F4807F0AD0636C43F400336364204623
:101F7800FFF7F8FE23684FF480721A6023681A6826
:101F880012F4007F0ED05B6813F4007F0AD0636CF4
:101F980043F4802363642046FFF7E6FE23684FF48A
:101FA80000721A6023681A6812F0100F2CD05A6851
:101FB80012F0100F28D0A26B012A11D01E4A926885
:101FC80012F01F0F05D1DB6813F0010F0AD10023AF
:101FD8000BE0194B9B6813F4404F05D1002304E034
:101FE800012302E0012300E0012353B1636C43F4B1
:101FF80080636364A36C43F00203A364204601F08A
:102008001FFF236810221A6023681A6812F4806F71
:1020180011D05A6812F4806F0DD0626C42F480427D
:102028006264A26C42F00802A2644FF480621A60F3
:102038002046FFF795FE10BD0003005070B497B01E
:102048000023009390F84030012B00F0EB8101232E
:1020580080F84030036913B18B69012B22D14B689A
:10206800012B19D18B6A012B05D00A6843EA022398
:10207800CA6A134301E00B681B020268D46C24F09F
:10208800FB4424F4EF0424F4BF4424F07F041C43ED
:10209800D464C364002239E0436C43F020034364F2
:1020A800012233E0026D7AB903650023C3648B6AA9
:1020B800012B06D08A69013A1343CA6A1A43C264DB
:1020C80002E08B69013BC364C26C4B6803EB4303BA
:1020D8005B0002331F249C4022EA04040A6802FAC7
:1020E80003F32343C364026D013A02656AB90268C7
:1020F800D46C24F0FB4424F4EF0424F4BF4424F00B
:102108007F042343D364002200E0002203689C6814
:1021180014F0080F1BD10C6A54B9DE6826F4401677
:102128004C6ACD692D0545EA44543443DC600EE021
:10213800DD6825F440154C6A45EA4454DC60CB69F7
:10214800012B04D1436C43F020034364012203684C
:102158009C6814F00C0F40F0A1808C6A012C07D108
:10216800DD6825F000750C6A45EA4464DC600BE024
:10217800DC6824F00074DC600B6A012B04D1436C2A
:1021880043F02003436401220B68092B0ED904682D
:10219800A56903EB43031E3B07269E4025EA060676
:1021A8008D6805FA03F33343A3610CE0046865699D
:1021B80003EB430307269E4025EA06068D6805FAC9
:1021C80003F3334363614C690368DD68C5F3C105F4
:1021D8006D0004FA05F50C69013C032C2FD8DFE8E3
:1021E80004F0020D18231C6E904E26400C6845EA38
:1021F8008464264346F000461E664FE05C6E8B4EB4
:1022080026400C6845EA8464264346F000465E662C
:1022180044E09C6E854E26400C6845EA846426435B
:1022280046F000469E6639E0DC6E804E26400C681B
:1022380045EA8464264346F00046DE662EE01D6EBD
:1022480005F0F8450C68B5EB846F03D11C6E24F0DB
:1022580000441C6603685D6E05F0F8450C68B5EB34
:10226800846F03D15C6E24F000445C6603689D6E45
:1022780005F0F8450C68B5EB846F03D19C6E24F02B
:1022880000449C660368DD6E05F0F8450C68B5EB04
:10229800846F03D1DC6E24F00044DC6603689C681C
:1022A80004F00304012C05D11C6814F0010F03D1BC
:1022B800002402E0002400E00124002C40F0AD805E
:1022C800CC68012C0AD0D3F8B0500C68012606FA65
:1022D80004F425EA0404C3F8B04028E0D3F8B05069
:1022E8000C68012606FA04F42C43C3F8B0400B68C6
:1022F800092B0ED90468A56903EB43031B3B07268A
:102308009E4025EA06068D6805FA03F33343A36168
:102318000DE004686569013303EB430307269E401B
:1023280025EA06068D6805FA03F3334363610B68F3
:10233800102B04D13E49896811F4000F0DD0112BE0
:1023480004D13B49896811F0807F06D0122B64D1F3
:102358003749896811F4800F5FD10168B1F1A04F46
:1023680002D1344C019402E04FF0A04401948C68EF
:1023780004F00304012C05D10C6814F0010F03D1FB
:10238800002402E0002400E00124002C40D1019C3C
:102398007CB1A56805F00305012D05D1246814F06A
:1023A800010F03D1002402E0002400E00124002CE6
:1023B8002ED1102B19D1B1F1A04F16D11C4B996811
:1023C80041F4000199601C4B19681C4BA3FB0143A5
:1023D8009B0C03EB83035B00009302E0009B013B33
:1023E8000093009B002BF9D117E0112B08D1B1F114
:1023F800A04F05D10E4B996841F0807199600CE0AF
:10240800122B0AD10A4B996841F48001996004E0C3
:10241800436C43F0200343640122002380F84030DA
:10242800104600E0022017B070BC704700F0FF8330
:1024380000030050000100500000002083DE1B4311
:1024480070B497B090F84030012B00F090800123D1
:1024580080F840300368B3F1A04F02D1464A019298
:1024680002E04FF0A04201929B6813F0040F6CD178
:10247800019B9A6812F0040F67D10A68002A37D0C6
:102488003E4A966826F460464C68456B44EA4534F3
:10249800344394600268946804F00304012C05D165
:1024A800126812F0010F03D1002202E0002200E0BE
:1024B8000122002A4FD19A6802F00302012A05D1AD
:1024C8001B6813F0010F03D1002302E0002300E092
:1024D8000123002B41D1294A936823F4716323F027
:1024E8000F030C68896821430B439360002239E08D
:1024F800224A916821F4604191600268916801F074
:102508000301012905D1126812F0010F03D100223D
:1025180002E0002200E001220ABB9A6802F00302EE
:10252800012A05D11B6813F0010F03D1002302E033
:10253800002300E00123A3B9104A936823F47163D0
:1025480023F00F03936000220CE0436C43F0200358
:102558004364012206E0002204E0002202E0002297
:1025680000E00022002380F84030104600E00220FE
:1025780017B070BC704700BF000100500003005046
:10258800154AD2F8883043F47003C2F88830134BE8
:10259800196841F0010119605868114901405960F2
:1025A800196821F0847121F480311960196821F4C7
:1025B80080211960596821F4FE015960D96A21F017
:1025C8000F01D962186B074901401963002199600E
:1025D8004FF000639360704700ED00E00010024088
:1025E8000CC07FF8CCFC00FF00F00700064AD36857
:1025F80023F4E0631B041B0C43EA002343F0BF638E
:1026080043F40033D360704700ED00E030B4164B5C
:10261800DB68C3F30223C3F10705042D28BF042593
:102628001C1D062C01D9033B00E00023012404FAF9
:1026380005F5013D2940994004FA03F3013B1A408E
:102648000A43002806DA00F00F001201D2B2074B45
:102658001A5407E01201D2B200F1604000F561405F
:1026680080F8002330BC704700ED00E014ED00E076
:10267800420900F01F00012303FA00F0014B43F860
:102688002200704700E100E0420900F01F0001232A
:1026980003FA00F02032024B43F82200704700BFD3
:1026A80000E100E00138B0F1807F0AD2064B5860A3
:1026B800F021064A82F823100020986007221A6049
:1026C80070470120704700BF10E000E000ED00E017
:1026D800042805D1054B1A6842F004021A607047B5
:1026E800024B1A6822F004021A60704710E000E0FA
:1026F800704700BF08B5FFF7FBFF08BD10B50446DB
:10270800074B1868074BA3FB00208009FFF7CAFF97
:102718004FF0FF3021460022FFF778FF002010BD60
:1027280000000020D34D621008B5074B1A6842F02C
:1027380010021A600320FFF757FF0020FFF7DEFFA3
:1027480001F08AFF002008BD00200240024B1A68F1
:1027580001321A60704700BFD4000020014B18688E
:10276800704700BFD40000200268054B1344054A97
:10277800A2FB03131B099B000364034BC36370474D
:10278800F8FFFDBFCDCCCCCC0000024010B504460C
:1027980030B3022380F821300268136823F47F5392
:1027A80023F030034068A1680843E16808432169C1
:1027B800084361690843A1690843E16901430B4380
:1027C80013602046FFF7D0FF0020A062E06220637C
:1027D8006063A063012384F8213084F8200010BDD1
:1027E800012010BD38B5C36B1B6801680C68026C0A
:1027F800042595401D4215D014F0040F12D00B6823
:1028080013F0200F03D10B6823F004030B60C36B94
:10281800026C042101FA02F25A60C36A002B3BD011
:10282800984738BD022595401D421AD014F0020F72
:1028380017D00B6813F0200F06D10B6823F00A039A
:102848000B60012380F82130C36B026C022101FA6E
:1028580002F25A60002380F82030836AE3B1984777
:1028680038BD082505FA02F21A4215D014F0080FEF
:1028780012D00B6823F00E030B60C26B016C0123AE
:1028880003FA01F15160836380F82130002380F856
:102898002030036B03B1984738BD00BF2DE9F043E2
:1028A80083B00546036813F0010F00F09E80B94B12
:1028B8005B6803F00C03042B0AD0B64B5B6803F08B
:1028C8000C03082B1BD1B34B5B6813F4803F16D065
:1028D8004FF4003393FAA3F3AE4B1A684FF4003366
:1028E80093FAA3F3B3FA83F303F01F03012101FA68
:1028F80003F31A4279D06B68002B76D1B4E26B6887
:10290800B3F5803F08D103F1804303F588331A6893
:1029180042F480321A6026E063B903F1804303F57C
:1029280004331A6822F480321A601A6822F480226A
:102938001A6018E0B3F5A02F0CD103F18043A3F57A
:102948003C331A6842F480221A601A6842F48032D2
:102958001A6008E08F4B1A6822F480321A601A68ED
:1029680022F480221A608B4BD96A21F00F01AA68E1
:102978000A43DA626B68E3B1FFF7F0FE80464FF472
:102988000034844F012606E0FFF7E8FEC8EB00009C
:10299800642800F26B8294FAA4F33A6894FAA4F3D8
:1029A800B3FA83F303F01F0306FA03F31A42EBD0DA
:1029B8001BE0FFF7D3FE80464FF40034754F012625
:1029C80006E0FFF7CBFEC8EB0000642800F2508257
:1029D80094FAA4F33A6894FAA4F3B3FA83F303F0ED
:1029E8001F0306FA03F31A42EBD12B6813F0020F08
:1029F80000F09080674B5B6813F00C0F0AD0654BB2
:102A08005B6803F00C03082B27D1624B5B6813F457
:102A1800803F22D1022393FAA3F35E4B1A68022364
:102A280093FAA3F3B3FA83F303F01F03012101FA26
:102A380003F31A4203D02B698B4240F01B82554B9B
:102A4800196821F0F8016A69F82090FAA0F0B0FA44
:102A580080F082400A431A605CE02B699BB3012234
:102A680092FAA2F3B3FA83F303F1845303F58413C0
:102A78009B001A60FFF772FE80460224454F01262C
:102A880006E0FFF76BFEC8EB0000022800F2F481B5
:102A980094FAA4F33A6894FAA4F3B3FA83F303F02C
:102AA8001F0306FA03F31A42EBD03A4B196821F0D8
:102AB800F8016A69F82090FAA0F0B0FA80F0824034
:102AC8000A431A6026E0012393FAA3F3B3FA83F3C7
:102AD80003F1845303F584139B0000221A60FFF767
:102AE8003DFE804602242B4F012606E0FFF736FE06
:102AF800C8EB0000022800F2C18194FAA4F33A68F6
:102B080094FAA4F3B3FA83F303F01F0306FA03F36A
:102B18001A42EBD12B6813F0080F57D0AB6943B3B7
:102B2800012292FAA2F1B1FA81F11B4B0B449B00EE
:102B38001A60FFF713FE80460224164F012606E0AE
:102B4800FFF70CFEC8EB0000022800F2998194FA06
:102B5800A4F394FAA4F394FAA4F37A6A94FAA4F383
:102B6800B3FA83F303F01F0306FA03F31A42E7D01C
:102B78002CE0012292FAA2F2B2FA82F2064B134436
:102B88009B0000221A60FFF7E9FD80460224014FEE
:102B980001260AE00010024020819010FFF7DEFDB8
:102BA800C8EB0000022800F26D8194FAA4F394FAAD
:102BB800A4F394FAA4F37A6A94FAA4F3B3FA83F325
:102BC80003F01F0306FA03F31A42E7D12B6813F048
:102BD800040F00F0B880B54BDB6913F0805F0CD1AF
:102BE800B24BDA6942F08052DA61DB6903F0805354
:102BF8000193019B4FF0010801E04FF00008AC4B36
:102C08001B6813F4807F13D1A94B1A6842F48072B1
:102C18001A60FFF7A3FD0646A54C05E0FFF79EFDE9
:102C2800801B642800F23081236813F4807FF5D07C
:102C3800EB68012B05D19D4B1A6A42F001021A621A
:102C480022E063B903F1804303F504331A6A22F0E2
:102C580001021A621A6A22F004021A6214E0052BB1
:102C680009D1924B1A6A42F004021A621A6A42F0B7
:102C780001021A6208E08D4B1A6A22F001021A62F8
:102C88001A6A22F004021A62EB6853B3FFF766FD72
:102C980081460224854F012608E0FFF75FFDC9EB56
:102CA800000041F28833984200F2F08094FAA4F3CD
:102CB80094FAA4F3B3FA83F343F040035B09022BBD
:102CC80001D13A6A02E094FAA4F37A6A94FAA4F376
:102CD800B3FA83F303F01F0306FA03F31A42DCD0B6
:102CE80029E0FFF73BFD81460224704F012608E0EA
:102CF800FFF734FDC9EB000041F28833984200F237
:102D0800C78094FAA4F394FAA4F3B3FA83F343F0D4
:102D180040035B09022B01D13A6A02E094FAA4F35A
:102D28007A6A94FAA4F3B3FA83F303F01F0306FA5A
:102D380003F31A42DCD1B8F1000F04D05B4BDA6917
:102D480022F08052DA61EB69002B00F0A380574A29
:102D5800526802F00C02082A00F09E80022B5AD119
:102D68004FF0807393FAA3F3B3FA83F303F1845318
:102D780003F584139B0000221A60FFF7EFFC8046DE
:102D88004FF00074494F012606E0FFF7E7FCC8EB57
:102D98000000022800F2828094FAA4F33A6894FAB8
:102DA800A4F3B3FA83F303F01F0306FA03F31A42FA
:102DB800EBD13E4B596821F47411686A2A6A0243C0
:102DC8000A435A604FF0807393FAA3F3B3FA83F37C
:102DD80003F1845303F584139B0001221A60FFF763
:102DE800BDFC07464FF00074304E012504E0FFF7A4
:102DF800B5FCC01B022853D894FAA4F3326894FA9D
:102E0800A4F3B3FA83F303F01F0305FA03F31A429A
:102E1800EDD0002047E04FF0807393FAA3F3B3FAA4
:102E280083F303F1845303F584139B0000221A6093
:102E3800FFF794FC07464FF000741C4E012504E090
:102E4800FFF78CFCC01B02282CD894FAA4F3326834
:102E580094FAA4F3B3FA83F303F01F0305FA03F318
:102E68001A42EDD100201EE001201CE003201AE0E8
:102E7800032018E0012016E0032014E0032012E0EC
:102E8800032010E003200EE003200CE003200AE0FA
:102E9800032008E0002006E0012004E0032002E00F
:102EA800032000E0032003B0BDE8F08300100240D7
:102EB80000700040164B5B6803F00C02082A25D10D
:102EC80003F470114FF4701292FAA2F2B2FA82F27D
:102ED80021FA02F20F498A5C0D49C86A00F00F0016
:102EE8000F2191FAA1F1B1FA81F120FA01F10A4812
:102EF800415C13F4803F05D00848B0FBF1F002FBB9
:102F080000F07047064800FB02F07047034870471E
:102F180000100240CC700008BC70000800127A0053
:102F280000093D002DE9F04104460D46794B1B6828
:102F380003F007038B420BD2764B1A6822F0070284
:102F48000A431A601B6803F007038B4240F0C980EC
:102F5800236813F0020F06D06F4B596821F0F00177
:102F6800A2680A435A60236813F0010F79D0636896
:102F7800012B13D14FF4003292FAA2F2664A11687B
:102F88004FF4003292FAA2F2B2FA82F202F01F0271
:102F9800012000FA02F2114228D1A5E0022B13D138
:102FA8004FF0007292FAA2F25B4A11684FF0007279
:102FB80092FAA2F2B2FA82F202F01F02012000FA9B
:102FC80002F2114212D192E0022292FAA2F2524A7D
:102FD8001168022292FAA2F2B2FA82F202F01F02F9
:102FE800012000FA02F2114200F084804A4A516836
:102FF80021F003010B435360FFF7B0FB06466368FB
:10300800012B0FD105E0FFF7A9FB801B404503D931
:1030180073E0414F41F288387B6803F00C03042BBE
:10302800F1D11EE0022B15D105E0FFF797FB801BBD
:10303800404503D964E0384F41F288387B6803F093
:103048000C03082BF1D10CE0FFF788FB801B4045EF
:1030580003D958E0304F41F288387B6813F00C0FE1
:10306800F2D12C4B1B6803F00703AB420AD9294B5A
:103078001A6822F007022A431A601B6803F0070344
:10308800AB4243D1236813F0040F06D0224B596892
:1030980021F4E061E2680A435A60236813F0080FDC
:1030A80007D01D4B5A6822F46052216942EAC102D6
:1030B8005A60FFF7FFFE184B5A6802F0F002F0233F
:1030C80093FAA3F3B3FA83F322FA03F3134AD35C14
:1030D800D840134B18600020FFF710FB0020BDE814
:1030E800F0810120BDE8F0810120BDE8F0810120D8
:1030F800BDE8F0810120BDE8F0810320BDE8F08142
:103108000320BDE8F0810320BDE8F0810120BDE87F
:10311800F08100BF0020024000100240A4700008A7
:1031280000000020014B1868704700BF0000002015
:1031380008B5FFF7F7FF084B5A6802F4E0624FF44E
:10314800E06393FAA3F3B3FA83F322FA03F3034A8F
:10315800D35CD84008BD00BF00100240B47000081E
:1031680008B5FFF7DFFF084B5A6802F460524FF4C6
:10317800605393FAA3F3B3FA83F322FA03F3034AEF
:10318800D35CD84008BD00BF00100240B4700008EE
:1031980030B490F83C30012B1CD0012380F83C302F
:1031A80003685A689D680D4CA34203D122F470024B
:1031B8004C68224322F070020C68144325F0800208
:1031C800896811435C6003689960002380F83C308B
:1031D800184600E0022030BC704700BF002C0140B8
:1031E800704700BF704700BF30B589B0214B5A699E
:1031F80042F480025A615A6902F480020092009AED
:103208005A6942F400325A615A6902F40032019252
:10321800019A5A6942F480225A615B6903F4802357
:103228000293029B4FF090400B210022FEF7E4F836
:103238000B230393012504950024059406944FF06D
:10324800904003A9FDF7F4FF102303930495059418
:103258000694094803A9FDF7EBFF80230393032392
:10326800049305944FF0904003A9FDF7E1FF09B0DE
:1032780030BD00BF001002400004004800B583B014
:10328800164B5A6942F001025A615B6903F0010367
:103298000193019B0B2000210A46FFF7B7F90B2089
:1032A800FFF7E6F90C2000210A46FFF7AFF90C20DA
:1032B800FFF7DEF90E2000210A46FFF7A7F90E20D6
:1032C800FFF7D6F90F2000210A46FFF79FF90F20D4
:1032D800FFF7CEF903B05DF804FB00BF0010024011
:1032E800F0B591B0274C4FF0A043236000250E9510
:1032F8000D950F9520460DA9FFF7A2F86560A5600A
:10330800E5600126266104276761A561E5612662FB
:103318006562A662E66225636563A5632046FEF7DB
:1033280045FB0B2301930296039704950595069593
:1033380003260796089509950A9524230B9340239D
:103348000C9320460DEB0701FEF778FE0C23019342
:1033580002230293039720460DEB0701FEF76EFE4A
:103368000D2301930296039720460DEB0701FEF704
:1033780065FE20462946FEF72DFC2046FEF774FC24
:1033880011B0F0BDA4020020F0B591B0274C284B35
:10339800236000250E950D950F9520460DA9FFF782
:1033A8004FF86560A560E56001262661042767611E
:1033B800A561E56126626562A662E66225636563CA
:1033C800A5632046FEF7F2FA0D23019302960397B0
:1033D80004950595069503260796089509950A9577
:1033E80024230B9340230C9320460DEB0701FEF793
:1033F80025FE0E23019302230293039720460DEB2B
:103408000701FEF71BFE0F23019302960397204640
:103418000DEB0701FEF712FE20462946FEF7DAFB00
:103428002046FEF721FC11B0F0BD00BF700100205E
:1034380000010050F0B5B1B0484D494B2B60002455
:103448006C60AC60284600F09DFE4FF480532C93CE
:103458003F232D932E9408262F96284621462CAAE2
:1034680000F0F6FE189419941A941B941C941D9459
:103478001E941F944FF000632093219422944FF0E0
:10348800005323932B9410231793249401272597F3
:1034980026944FF480732793289429942A942846D5
:1034A800214617AA00F044FF0F94042310931196A5
:1034B80012941394202314931594169428462146A5
:1034C8003A460FAB01F04AF82846214602220FABD4
:1034D80001F044F830AE40F6FF7346F8903D2846B8
:1034E80021463A46334600F095FF0A9409944FF076
:1034F80080430B93282308930394069405944FF470
:103508008042079204932846214603AA00F048FF08
:103518000D940E9440F299130C93284621460222EA
:10352800334600F077FF4FF48063029330AA4FF4DC
:10353800803342F8BC3D2846022100F0A3FE28460D
:10354800032101F029F828464FF4003101F040F832
:10355800284601F067F931B0F0BD00BF3C030020F8
:103568000074014008B54FF090400221FDF74AFF72
:1035780008BD00BF10B50446037F012B11D10021FF
:10358800FDF77CFB80B2114B1B88984204D2C31A0A
:10359800013B0F4A138002E01B1A0D4A13800B4BA4
:1035A8001880237F082B10D120460C21FDF766FBDD
:1035B80080B2064B1B88984204D2C31A013B054AC5
:1035C800138010BD181A034A108010BDBC000020DB
:1035D800C0000020BE000020FEE700BF00B58DB08F
:1035E8003B4BDA6942F00102DA61DB6903F001035F
:1035F8000093009B37484FF08043036000234360EB
:1036080083604FF6FF72C26003618361FDF766FC59
:1036180020B131484FF42C71FFF7DEFF0CA94FF4AD
:10362800805341F8103D2B48FDF732FD20B12A4860
:1036380040F2B621FFF7D0FF2648FDF76BFC20B11A
:10364800254840F2BB21FFF7C7FF002305930793E6
:10365800204805A9FFF79CFD20B11F4840F2C22170
:10366800FFF7BAFF0022019201230293039204920A
:10367800184801A9FDF7A0FC20B1174840F2CB215A
:10368800FFF7AAFF134801A90C22FDF795FC20B10A
:1036980011484FF43471FFF79FFF0E480021FDF7E2
:1036A80097FD20B10C4840F2D621FFF795FF094855
:1036B8000C21FDF78DFD20B107484FF43771FFF756
:1036C8008BFF0448FDF7CAFA0DB05DF804FB00BF94
:1036D8000010024008050020DC70000808B50C48FE
:1036E8000C4B03604FF4E133436000238360C360F5
:1036F80003610C2242618361C36103624362FEF786
:1037080099F820B104484FF44971FFF765FF08BDE7
:103718001804002000380140DC70000808B50C4887
:103728000C4B03604FF4E133436000238360C360B4
:1037380003610C2242618361C36103624362FEF745
:1037480079F820B1044840F23931FFF745FF08BD48
:103758000001002000480040DC70000800B597B068
:1037680001220C924FF480330D9300210E91109298
:103778000222139214934FF4E01315930CA8FFF749
:103788008DF818B11D48E321FFF726FF0F23079393
:1037980002210891002309934FF4A0620A920B9327
:1037A80007A8FFF7BFFB18B11448F121FFF714FF72
:1037B80044F281030093002302934FF48072049231
:1037C8000693684600F05EFA18B10C48FB21FFF733
:1037D80003FFFFF7A7FC0A4BA3FB00208009FEF7B5
:1037E80061FF0420FEF774FF4FF0FF3000210A4606
:1037F800FEF70CFF17B05DF804FB00BFDC70000893
:10380800D34D6210F0B52DED088B8DB0FEF78CFF0F
:10381800FFF7A4FFFFF7E8FCFFF730FDFFF7DEFE38
:10382800FFF75CFFFFF77AFFFFF75AFDFFF7ACFDE4
:10383800FFF700FE00259FEDA98ADFEDA99ADFEDCD
:10384800A98A9FEDA99ADFEDA9AA9FEDA9BADDE0A3
:10385800A84E30460221FEF769FA07EE100AF8EE84
:10386800477A67EE887A67EEA97A67EEA87AA24B5C
:10387800C3ED007A30460121FEF758FA07EE100A28
:10388800F8EE477A67EE887A67EEA97A67EEA87A43
:103898009A4FC7ED007A9A4C20460121FEF746FA66
:1038A80007EE100AF8EE477A67EE887AB7EE087ADC
:1038B80067EE877A67EEA87A924BC3ED007A2046C6
:1038C8000221FEF733FA07EE900AB8EE67AA2AEE4D
:1038D80008AA2AEE28AA2AEE09AA20460221FEF7FB
:1038E80025FA07EE100AB8EE470A20EE080A20EE7D
:1038F800280A38EE400A8AEE000A00F07FF9824B67
:1039080083ED000A20460321FEF710FA07EE900A1D
:10391800B8EE67AA2AEE08AA2AEE28AA2AEE09AA69
:1039280020460321FEF702FA07EE100AB8EE470A0E
:1039380020EE080A20EE280A38EE400A8AEE000A2D
:1039480000F05CF9714B83ED000A30460321FEF765
:10395800EDF907EE100AF8EE477A67EE887A67EE17
:10396800A87A6B4BC3ED007AD7ED007AB3EE087AEC
:1039780077EE677A674B93ED007A77EE877AF4EE05
:10398800EA7AF1EE10FA09D89FED637AF4EEC77A75
:10399800F1EE10FAB8BFF0EE477A01E0F0EE6A7A7D
:1039A8005C4BC3ED007A574B93ED007A27EE0B7A08
:1039B800F3EE086A37EE267ADFED586A67EEA67AE4
:1039C80077EE277A4C4B93ED007A87EE277AF7EE5D
:1039D800007A37EEC77ADFED527AB4EEE77AF1EE85
:1039E80010FA88BFB0EE677A4E4B83ED007ADFEDB0
:1039F8004E7A27EE277A77EEC77AFCEEE77A17EE4B
:103A0800902A92B2494BC3F89C20013540F2DB530F
:103A18009D427FF71DAF4FF090400121FDF7F2FC6A
:103A28003B4B93ED007ADFED427AB4EEE77AF1EEA4
:103A380010FA03DD1220FEF71BFE02E01220FEF74B
:103A480023FE314B93ED007ADFED3A7AB4EEE77A54
:103A5800F1EE10FA09DC2D4B93ED007AB4EEE77A1B
:103A6800F1EE10FA03DD012202E0012200E000225B
:103A780031481021FDF7C0FC234B1868FCF70EFDF8
:103A880004460D46214B1868FCF708FDCDE90001F6
:103A9800194B1868FCF702FDCDE90201174B1868AD
:103AA800FCF7FCFCCDE90401164B1868FCF7F6FCA2
:103AB800CDE90601164B1868FCF7F0FCCDE90801C2
:103AC8001E4B1B880A931E4B1B880B931D482246CE
:103AD8002B4600F0FBFF002598E700BF3333534027
:103AE8000AD773410000803900401C460000FA44A0
:103AF800CDCC2C40A4020020900500208C0400208E
:103B080070010020C40100209405002088040020D2
:103B1800D8040020D40400200000FAC40AD7233CAB
:103B28005C8F423F8C0500200000804500740140F6
:103B38009A99D93F0000484200040048C00000207C
:103B4800BE000020E8700008F8B50D4617460024AE
:103B580005E06E1CAFF30080287001343546BC4286
:103B6800F7DB3846F8BD00BF70B51646002405E0FF
:103B78004D1C087800F030F801342946B442F7DBD0
:103B8800304670BD08B50B4B1B6813B90A4A094B80
:103B98001A60084B1B6818446A46904206D900F020
:103BA80057FF0C2303604FF0FF3008BD014A106037
:103BB800184608BDC4000020A00500204FF0FF30C3
:103BC800704700BF4FF400534B600020704700BFA0
:103BD800012070470020704700B583B002A941F862
:103BE800040D054801224FF6FF73FDF781FD01988A
:103BF80003B05DF804FB00BF1804002000B52DEDEC
:103C0800028B93B09FED1D8A80EE088A01A81C499B
:103C1800442200F049FF012322E012A901EB8302AC
:103C280052ED117AF4EEC87AF1EE10FA17D512EDCA
:103C3800127A37EEC80A77EE677A80EE270AB2EE74
:103C4800047A20EE070A03EB83035B0006EE903A42
:103C5800F8EEE67A30EE270A30EE470A08E001333C
:103C6800102BDAD9F2EE047A9DED120A30EE270A0B
:103C780013B0BDEC028B5DF804FB00BF00007A4472
:103C8800607000082DE9F04383B00446036813F41C
:103C9800803F00F08A80654BDB6913F0805F0BD1B1
:103CA800624BDA6942F08052DA61DB6903F08053D3
:103CB8000193019B012700E000275D4B1B6813F46B
:103CC800807F13D15A4B1A6842F480721A60FEF74B
:103CD80045FD0646564D05E0FEF740FD801B64286D
:103CE80000F29C802B6813F4807FF5D04F4B1B6A41
:103CF80013F440734DD0626802F440729A4248D07F
:103D08004A4A136A23F440754FF4803090FAA0F6BB
:103D1800B6FA86F647490E44B6004FF0010CC6F8CD
:103D280000C090FAA0F0B0FA80F0014489000020A9
:103D38000860156213F0010F2BD0FEF70FFD8146C6
:103D48000225DFF8E880012607E0FEF707FDC9EB4A
:103D5800000041F28833984262D895FAA5F395FAA3
:103D6800A5F3B3FA83F343F040035B09022B02D1B6
:103D7800D8F8202003E095FAA5F3D8F8242095FA7E
:103D8800A5F3B3FA83F303F01F0306FA03F31A4209
:103D9800DBD0264B196A21F4407162680A431A6223
:103DA8001FB1DA6922F08052DA61236813F0010F3B
:103DB80006D01E4B196B21F00301A2680A431A634F
:103DC800236813F0200F06D0184B196B21F010014F
:103DD800E2680A431A63236813F0800F06D0134B76
:103DE800D96A21F4F87122690A43DA62236813F464
:103DF800805F06D00D4B196B21F4807162690A430C
:103E08001A63236813F4804F0CD0084B1A6B22F402
:103E18008052A1690A431A63002004E0032002E0EB
:103E2800032000E0002003B0BDE8F083001002404A
:103E38000070004000819010704700BF704700BFBD
:103E4800704700BF10B403681C6824F007048A6830
:103E5800224322F01804CA6822431A6003680A68D9
:103E68005A6103684A689A615DF8044B704700BF5D
:103E780070B404684B1CDB01E65826F00706956809
:103E8800354325F01806D5683543E55004681368AE
:103E9800C9010C44C4F89430006853680144C1F85F
:103EA800983070BC704700BF30B403681D68D3F801
:103EB800A04325F020054A692A4322F400658A694F
:103EC8002A4322F48065CA692A4322F0C0650A6A37
:103ED8002A4322F000654A6A2A4322F040458A6A4A
:103EE80045EA820222F000550A6B2A4324F4803402
:103EF800C96A21431A600368C3F8A01330BC70472D
:103F08002DE9F00303684C1CE4011D5925F07045A8
:103F18001D5103681F5903EBC116D6F8E890D6F86F
:103F2800E440D0367668D3F8A06327F0200C5769B0
:103F380047EA0C0727F4006C976947EA0C0727F44F
:103F4800806CD76947EA0C0727F0C06C176A47EA04
:103F58000C0727F0006C576A47EA0C0727F0704CEB
:103F6800976A47EA0C0727F4003C176BB7F1005F24
:103F780001D14CF4003C2CF0400C576B47EA0C0C78
:103F88002CF4802C156D45EA0C0C2CF0FC7C956CFF
:103F980045EA0C0C956B05F01F0829F0004525F043
:103FA8001F0545EA0808D56B45EA08081FB924F437
:103FB8008074156C2C43556CB5F5606F02D0B5F55F
:103FC800F05F01D1402F02D124F4F0542C43D56C7A
:103FD800042921D8DFE801F003090F151B0026F496
:103FE8000036D26A46EA420616E026F48026D26AED
:103FF80046EA820610E026F40026D26A46EAC2069D
:104008000AE026F48016D26A46EA021604E026F48C
:104018000016D26A46EA42164A1CD20143F802C088
:104028000368C9010B44C3F8E88003680B44C3F86C
:10403800E44003681944C1F8D4500368C3F8A06386
:10404800BDE8F003704700BFF0B4056805EBC11484
:10405800D4F8E460D4F8B870102A1AD00AD8022A22
:1040680023D002D8012A2CD113E0042A11D0082A1F
:1040780027D11AE0802A18D004D8202A15D0402A3F
:104088001FD106E0B2F5807F03D0B2F5007F18D1CA
:104098000BE05C68CA011544C5F8BC4005689C681B
:1040A8002A44C2F8C04000220DE05C68CA011544E9
:1040B800C5F8C44005689C682A44C2F8C840102264
:1040C80001E04FF0FF329446FE25954026EA0506AA
:1040D8001D6895402E43DC68944026431C6904FA09
:1040E80002F52E435D6995402E439D6905FA02F25B
:1040F8003243082C07D117F0022F04D1DB6903FAE9
:104108000CFC42EA0C02036803EBC111C1F8E4207D
:10411800F0BC7047052933D8DFE801F00B131B23E7
:104128002B030368D3F8842342F00102C3F88423E5
:1041380070470368D3F8842342F00202C3F884234B
:1041480070470368D3F8842342F00402C3F8842339
:1041580070470368D3F8842342F00802C3F8842325
:1041680070470368D3F8842342F01002C3F884230D
:1041780070470368D3F8842342F02002C3F88423ED
:10418800704700BF30B583B00446002859D00223D9
:1041980080F8C1300023C0F8C430C0F8C830C0F877
:1041A800CC30C0F8D030C0F8D430C0F8D8308368EC
:1041B80013F0010F1AD00368234A934209D1234B05
:1041C8009A6942F000529A619B6903F00053019387
:1041D800019B23681968226902F4404221F4704166
:1041E8001143626902F440520A431A60204600F003
:1041F80005FBA36813F0020F08D02368196821F49F
:104208004071E26802F440720A431A60012384F89C
:10421800C130002384F8C0301A460EE0D800C11A15
:10422800890021448A61CA610A624A628A62C11AA3
:10423800890021440A630133DBB2052BEED9002043
:1042480000E0012003B030BD0074014000100240BE
:1042580010B5044690F8C130DBB2022B0FD0022310
:1042680080F8C130052903D11146FFF7EBFD01E0C5
:10427800FFF7FEFD012384F8C130002010BD0220A5
:1042880010BD00BF30B490F8C130DBB2022B4AD069
:1042980090F8C030012B48D0012380F8C0300223A9
:1042A80080F8C1300468D4F88033013907292FD841
:1042B800DFE801F0040E2E192E2E2E2423F4E0231D
:1042C800116801F4E0210B435268C4F8BC231FE0D5
:1042D80023F460131168C90001F460110B4352689C
:1042E800C4F8C02314E023F0E0731168890101F0D9
:1042F800E0710B435268C4F8C42309E023F06063FB
:104308001168490201F060610B435268C4F8C82380
:104318000268C2F88033012380F8C130002380F896
:10432800C030184602E0022000E0022030BC70478E
:1043380070B504460E46154690F8C130DBB2022B24
:104348002AD090F8C030012B28D0012380F8C03043
:10435800022380F8C130052903D11146FFF7A4FDD7
:1043680001E0FFF7CDFD2A68F3009B1B9B00234467
:104378001A626A685A62AA689A62EA68DA622A69FC
:104388001A6320463146FFF7C5FE012384F8C13081
:10439800002084F8C00070BD022070BD022070BDEE
:1043A80030B490F8C130DBB2022B2CD090F8C0307A
:1043B800012B2AD0012480F8C040022380F8C130A4
:1043C800036803EBC111D1F8B850114B2B401568A5
:1043D8002B4355682B4395682B4315692B43D568A8
:1043E8001D43536945EA034593691D43136A2B43EB
:1043F800D2691343C1F8B83080F8C140002380F86F
:10440800C030184602E0022000E0022030BC7047AD
:104418000020003C70B490F8C140E4B2022C00F0D7
:10442800988090F8C040012C00F09580012480F815
:10443800C040022480F8C140052918D1013A072A52
:104448007FD8DFE802F004087E0C7E7E7E100268CA
:104458001B68D36175E002681B68536271E00268EB
:104468001B6893626DE002681B68D36269E0013AD9
:10447800072A66D8DFE802F0040B65356565653CF8
:1044880002681B6802EBC112C2F89C3059E004684C
:104498001A6804EBC114C4F8A4205A68002A50D042
:1044A80004684A1CD201A55825F44055A550046853
:1044B800A6585D683543A5505A68B2F5005F06D125
:1044C80002689C6802EBC113C3F89C4039E0B2F55E
:1044D800405F36D102689B6802EBC112C2F8A8306F
:1044E8002FE002681B6802EBC112C2F8A83028E06E
:1044F80004681A6804EBC114C4F8AC205A6802B303
:1045080004684A1CD201A55825F44045A550046802
:10451800A6585D6846EA8505A5505A68B2F5005F59
:1045280006D102689C6802EBC113C3F89C4008E0FE
:10453800B2F5405F05D102689B6802EBC112C2F870
:10454800A830012380F8C130002380F8C030184615
:1045580002E0022000E0022070BC704738B5044633
:1045680090F8C100C0B2022812D094F8C000012807
:1045780010D0012584F8C050022084F8C1002046DC
:10458800FFF762FD84F8C150002084F8C00038BDF0
:10459800022038BD022038BD10B490F8C030012B7D
:1045A80012D0012380F8C030022280F8C1200268AE
:1045B800D2F894432143C2F8941380F8C130002301
:1045C80080F8C030184600E002205DF8044B7047C0
:1045D80070B490F8C030012B39D0012380F8C03076
:1045E800022380F8C1300368D3F89043426822431D
:1045F800C3F8902311F4803F05D00368DC68D0F835
:10460800AC202243DA600023124D12E055F8232033
:104618000A420CD0046804EBC314D4F88C60C3EBD2
:10462800C30292000244126A3243C4F88C20013358
:10463800DBB2042BEAD903681A6811431960012315
:1046480080F8C130002380F8C030184600E002200E
:1046580070BC70471071000800B583B01C4B9A6994
:1046680042F001029A619B6903F001030193019BE7
:104678000320FDF7B9FF6FF00B0000210A46FDF794
:10468800C5FF6FF00A0000210A46FDF7BFFF6FF073
:10469800090000210A46FDF7B9FF6FF00400002168
:1046A8000A46FDF7B3FF6FF0030000210A46FDF745
:1046B800ADFF6FF0010000210A46FDF7A7FF4FF09C
:1046C800FF3000210A46FDF7A1FF03B05DF804FBA7
:1046D8000010024030B589B004460368B3F1A04F1A
:1046E8003CD13D4A136801331360012B09D13B4B80
:1046F8005A6942F080525A615B6903F08053019312
:10470800019B42F2030303930323049300250595B9
:10471800334803A9FCF78CFD3248334B03604560EE
:1047280085608023C3604FF4807303614FF4806316
:1047380043618561C561FEF729F818B12B487F21CF
:10474800FEF74AFF274BE3635C62122000210A460A
:10475800FDF75CFF1220FDF78BFF3BE0244A9342F4
:1047680038D11D4A136801331360012B09D11B4B43
:104778005A6942F080525A615B6903F08053029390
:10478800029B4FF45043039303230493002505959C
:10479800134803A9FCF74CFD1648174B0360456006
:1047A80085608023C3604FF4807303614FF4806396
:1047B80043618561C561FDF7E9FF18B10B48AC217C
:1047C800FEF70AFF0B4BE3635C62122000210A46E6
:1047D800FDF71CFF09B030BDC800002000100240E2
:1047E80000040048900400200800024028710008D6
:1047F80000010050480500201C00024082B00268F9
:10480800074B9A420AD103F51C439A6942F00052B9
:104818009A619B6903F000530193019B02B07047B2
:104828000074014000B587B002680B4B9A420FD163
:104838004FF440730193022302930023039303234D
:1048480004930D2305934FF0904001A9FCF7F0FC69
:1048580007B05DF804FB00BF00740140F0B589B0F3
:104868000368B3F1804F2ED103F50433DA6942F0BF
:104878000102DA61DB6903F001030193019B4FF444
:1048880000430393022704970025059503260696FF
:10489800012407944FF0904003A9FCF7C9FC4FF49A
:1048A8000063039304970595069607940D4803A99A
:1048B800FCF7BEFC1C2029462246FDF7A7FE1C205B
:1048C800FDF7D6FE0CE0084A934209D1074BDA6996
:1048D80042F00202DA61DB6903F002030293029BF1
:1048E80009B0F0BD00040048000400400010024078
:1048F80010B588B004460368344A934247D1344B14
:104908009A6942F480429A619B6903F48043019357
:10491800019BC023039302230493012305930323DC
:104928000693072307932B4803A9FCF781FC2A4821
:104938002A4B03600023436083608022C2600361C6
:1049480043618361C361FDF721FF20B124484FF41F
:104958002D71FEF741FE204B63665C622148224BB5
:10496800036010234360002383608022C2600361D8
:1049780043618361C361FDF709FF20B118484FF413
:104988003171FEF729FE174B23665C621BE0174A5C
:10499800934218D10E4BDA6942F48022DA61DB695E
:1049A80003F480230293029B4FF440730393022382
:1049B80004930123059303230693072307930548CC
:1049C80003A9FCF735FC08B010BD00BF0038014052
:1049D8000010024000040048F8020020580002407D
:1049E800287100086002002044000240004800408E
:1049F800DFF840D0002100F004B80F4B5B5843505B
:104A080004310E480E4B42189A42FFF4F6AF0D4A95
:104A180000F003B8002342F8043B0B4B9A42FFF422
:104A2800F9AFFDF7ADFD00F019F8FEF7EBFEFFF763
:104A3800FEBF0000003000200C73000800000020BA
:104A4800A0000020A00000209C050020FFF7FEBF6A
:104A5800014B1868704700BF6400002070B50E4B0A
:104A68000E4DED1AAD1000241E46AC4204D056F887
:104A7800242090470134F8E702F0E2FA084D094B88
:104A8800ED1AAD1000241E46AC4204D056F824207E
:104A980090470134F8E770BD0473000804730008F8
:104AA800087300080473000810B50023934203D06C
:104AB800CC5CC4540133F9E710BD02440346934269
:104AC80002D003F8011BFAE7704700000FB40A4B45
:104AD80013B51C6824B1A36913B9204601F06EFD13
:104AE80005AB2046A168049A019300F02FF802B0A4
:104AF800BDE8104004B07047640000209368013B93
:104B0800002B10B5936005DA9469A34208DBCBB299
:104B18000A2B05D01368581C10601970C8B210BD54
:104B2800BDE8104000F040BDF8B505460E461446F5
:104B3800D718BC4208D0284614F8011B3246FFF7A4
:104B4800DDFF431CF5D100E00020F8BD2DE9F0435E
:104B58009DB00D4617460393064618B183690BB9F5
:104B680001F02CFD734B9D4201D1756808E0724B32
:104B78009D4201D1B56803E0704B9D4208BFF568BE
:104B8800AB8918070AD52B6943B100230993202361
:104B98008DF8293030238DF82A3038E03046294600
:104BA80000F056FD0028F0D04FF0FF30BFE0039A28
:104BB800111D12680391002A70DB079201342378D3
:104BC8002E2B7DD05E4F21783846032201F0BAFDA6
:104BD80030B1C71B049B4020B84003430493013401
:104BE800217858488DF828100622671C01F0AAFD84
:104BF800002800F08A80544B002B7DD1039B07339B
:104C080023F0070308330393099B434409933B4666
:104C18001C4613F8012B1AB9B4EB07090ED002E0B1
:104C2800252AF5D1F8E7304629463A464B46FFF79C
:104C38007BFF013076D0099B4B4409932378002BE6
:104C480070D000234FF0FF32049307930592069328
:104C58008DF853301A9304F101094C463B4F2178E3
:104C68003846052201F06EFD09F10109049B28B1BF
:104C7800C71B0120B84003430493EEE7D90644BF9D
:104C880020228DF853201A0744BF2B228DF8532079
:104C980022782A2A8BD0079B214605E0524243F00E
:104CA80002030792049389E70C4601312278303ACF
:104CB800092A03D80A2000FB0323F5E707937EE7B8
:104CC80063782A2B0AD1039B1A1D1B680392002BB9
:104CD80004F10204B8BF4FF0FF330BE0611C00235E
:104CE8000C4601312278303A092A03D80A2000FB01
:104CF8000323F5E7059365E703AB0093304604A962
:104D08002A46134B00F0BAF807E003AB009330468D
:104D180004A92A460E4B00F033FBB0F1FF3F804652
:104D28007FF472AFAB895B063FF53EAF09981DB0C3
:104D3800BDE8F0839C710008BC710008DC710008B4
:104D48004E71000852710008854E0008487100082D
:104D5800314B00082DE9F04F55EC104B85B0002D74
:104D680088469246DDF8389004DA05F100473D465A
:104D78002D2200E000221A700F9B23F0200BBBF1BC
:104D8800460F05D0BBF1450F04D108F1010801E039
:104D9800032100E0022102AB009303AB019345EC31
:104DA800104B42464B4600F04FFDBBF1470F0646FD
:104DB80002D11AF0010F25D0BBF1460F06EB080708
:104DC80010D13378302B0AD12046294600220023FF
:104DD800FBF720FE18B9C8F10103C9F80030D9F86B
:104DE80000301F442046294600220023FBF712FE0C
:104DF80000B10397039BBB4204D25A1C0392302292
:104E08001A70F7E7039B9A1B109B30461A6005B08F
:104E1800BDE8F08F034673B5002903F8022B03DAC7
:104E280049421A462D2401E01A462B2409294470C8
:104E38001ADD0DF106040A2691FBF6F506FB15119D
:104E48003031092D234604F801192946F3DC05F110
:104E5800300103F8011D0DF107018B420AD213F846
:104E6800011B02F8011BF6E730241A46214402F818
:104E7800024B5970101A02B070BD00002DE9F04FB6
:104E88008BB00C4616461F46DDF85090054601F0DB
:104E9800FFFBD0F800A0504602F061F80023089309
:104EA800D9F8003094F818800590073323F00703E9
:104EB80093ED000B03F10802C9F8002084ED120BF2
:104EC80001F0D6FF012819D1D4E9120100220023EC
:104ED800FBF7AAFD10B12D2384F84330914B924A79
:104EE800B8F1470F8CBF9146994603232361236885
:104EF80023F0040323604FF0000B87E094ED120BBE
:104F080001F0B6FF226860B9884B894922F0040293
:104F1800B8F1470F8CBF8946994603232361226065
:104F2800E9E76368591C28F0200B01D1062304E047
:104F3800BBF1470F02D10BB90123636007AB8DE8C2
:104F4800080108AB42F4806202930023039361686E
:104F5800226094ED120B28460DF11B03FFF7FAFEB1
:104F6800BBF1470F8146079909D1C81C02DB63686A
:104F7800994230DDA8F102085FFA88F802E0B8F13A
:104F8800650F12D80139424604F150000791FFF726
:104F980041FF089A8318012A8346236102DC2268AC
:104FA800D2072DD5013323612AE0B8F1660F14D159
:104FB8000029636807DD216113B92268D0071CD571
:104FC80001330B4418E013B92268D20701D5023324
:104FD80012E0012310E04FF06708089A914205DBC0
:104FE80023682161D80708D54B1C05E00029D4BFE8
:104FF800C1F10203012313442361A1654FF0000BA3
:105008009DF81B3013B12D2384F8433000972846B0
:10501800214609AA334600F041F9013002D14FF088
:10502800FF3037E123685A0504D4284631464A46FA
:10503800236909E1B8F1650F40F2CC80D4E9120187
:1050480000220023FBF7E6FC00282AD02846314638
:10505800384A0123B8470130E1D0089B079A9A42A1
:1050680007DB2368D80704D423689B0700F1F9807D
:10507800FEE0284631465246059BB8470130CED05F
:105088004FF00008089B013B9845EDDA2846314669
:1050980004F11A020123B8470130C0D008F1010811
:1050A800F0E7079B002B28DC28463146214A0123DC
:1050B800B8470130B3D0079B23B9089B13B92368BD
:1050C800D907D1D5284631465246059BB847013005
:1050D800A5D04FF00008079B5B429845284631460B
:1050E80008DA04F11A020123B847013097D008F111
:1050F8000108F0E74A46089BA6E0A36D089A9A4281
:10510800B4BF93469B46BBF1000F02DC4FF000088A
:105118001DE0284631464A465B46B8470130F5D17E
:105128007DE700BF597100085D71000861710008D2
:1051380065710008697100082846314604F11A02B1
:105148000123B84701303FF46AAF08F10108A36DA5
:105158002BEAEB729A1A9045EEDB09EB0308079AE3
:10516800089B9A420FDB2368DA070CD4089B079A3E
:105178009944C8EB09099B1A9945A8BF9946B9F102
:10518800000F08DC0FE0284631465246059BB84719
:105198000130EBD143E72846314642464B46B847F3
:1051A80001303FF43CAF4FF000080AE02846314692
:1051B80004F11A020123B84701303FF430AF08F177
:1051C8000108079B089A29EAE971D31A5B1A9845DE
:1051D800ECDB49E7089A012A01DCDB0739D52846C8
:1051E80031464A460123B84701303FF418AF2846F4
:1051F80031465246059BB84701303FF410AFD4E919
:10520800120100220023FBF705FC10B14FF0000843
:1052180011E0089B2846314609F10102013B1CE0D8
:105228002846314604F11A020123B84701303FF4F9
:10523800F6AE08F10108089B013B9845F0DB2846CB
:10524800314604F150025B46B84701307FF40CAF99
:10525800E5E6284631464A460123B8470130EED1F3
:10526800DDE64FF00008E268099BD31A984505DB94
:10527800E068099B9842B8BF18460BE028463146BB
:1052880004F119020123B84701303FF4C8AE08F110
:105298000108E8E70BB0BDE8F08F00BF2DE9F8433F
:1052A80015461F468A680B69DDF820809A42A8BF18
:1052B80013462B6091F8432006460C460AB1013389
:1052C8002B602368990602D52B6802332B6023686C
:1052D80013F006091DD094F843302268003318BF34
:1052E800012392061FD5E1185A1C302081F843008B
:1052F800224494F8451082F84310023313E03046F4
:10530800394604F119020123C047013007D009F1D9
:105318000109E2682B68D31A9945F0DBDBE74FF007
:10532800FF30BDE8F8833046394604F14302C047F0
:105338000130F4D023682A68E16803F00603042BDF
:1053480008BFC2EB01052369A2680CBF25EAE57511
:1053580000259A42C4BFC3EB0203ED184FF00009C1
:10536800A9450ADA3046394604F11A020123C04732
:105378000130D4D009F10109F2E70020BDE8F88333
:105388002DE9FF470E7E0C9D6E2E80460C469146F9
:105398009A4601F1430000F0A58011D8632E22D06F
:1053A80009D8002E00F0AF80582E40F0BF8081F859
:1053B80045607B4A4FE0642E1ED0692E1CD0B5E0B4
:1053C800732E00F0A48009D86F2E2BD0702E40F0D9
:1053D800AD800B6843F020030B6038E0752E21D0B8
:1053E800782E34D0A2E02B681A1D1B682A6001F1C0
:1053F800420781F842309DE022682B6812F0800F46
:1054080003D01A1D2A601D6805E05106F9D51A1D3A
:105418002A60B3F90050002D39DA2D236D4284F843
:10542800433034E022682B6812F0800F03D01A1D35
:105438002A601D6804E05206F9D51A1D2A601D88E5
:10544800237E574A6F2B14BF0A2308231BE07823B7
:10545800544A84F845302368296813F0800F01F115
:1054680004062E6001D00D6802E05F06FBD50D88AA
:10547800DE0744BF43F0200323601DB9236823F0EF
:10548800200323601023002184F8431001E0444ADC
:105498000A236668A660002E03DB216821F0040158
:1054A800216005B96EB104F14201B5FBF3F603FBC7
:1054B80016550F46555D01F801593546002EF4D1B1
:1054C80000E00746082B0AD12368DD0707D5626884
:1054D80023699A4203DC302307F8013C013FC01BD3
:1054E80020612CE009682B68626911F0800F04D0F4
:1054F800191D29601B681A6005E04906F8D5191DB1
:1055080029601B681A8000232361074617E02B686F
:105518001A1D2A601F68384601F021FD6368206162
:10552800984288BF23612369636005E004F142075C
:1055380084F8426001232361002384F84330CDF8C6
:1055480000A04046214603AA4B46FFF7A7FE0130BC
:1055580002D14FF0FF301FE0404649463A462369E2
:10556800D0470130F5D023689B0705D4E068039B3A
:105578009842B8BF18460FE00025E268039BD31A8B
:105588009D42F3DA4046494604F119020123D04707
:105598000130DED00135F0E704B0BDE8F08700BF88
:1055A8006B7100087C71000870B50E4614460546FC
:1055B80018B183690BB901F001F8224B9C4201D163
:1055C8006C6808E0204B9C4201D1AC6803E01F4B9B
:1055D8009C4208BFEC68A369A360A3891A0709D590
:1055E80023693BB123692068C01A63699842F6B2FF
:1055F8000FDB08E02846214600F02AF80028F1D001
:105608004FF0FF3070BD2846214600F059FF0028B2
:10561800F6D1A368013BA36023685A1C22601E7060
:1056280063690130984204D0A389DB0707D50A2EA5
:1056380005D12846214600F043FF0028E0D1304636
:1056480070BD00BF9C710008BC710008DC710008C7
:10565800324B70B51D6806460C4625B1AB6913B9C7
:10566800284600F0ABFF2E4B9C4201D16C6808E045
:105678002C4B9C4201D1AC6803E02B4B9C4208BFE9
:10568800EC68A28993B2190720D4DD0605D4092352
:1056980042F040023360A2813BE0580712D5616BAB
:1056A80041B104F14403994202D0304601F048FB6D
:1056B80000236363A38923F02403A3810023636089
:1056C80023692360A38943F00803A38123694BB9A5
:1056D800A38903F42073B3F5007F03D03046214635
:1056E80000F0DAFFA38913F0010205D00022A260BE
:1056F80062695242A26103E0990758BF6269A260D9
:1057080022694AB903F0800080B230B143F0400307
:10571800A3814FF0FF3070BD002070BD64000020F1
:105728009C710008BC710008DC7100082DE9F74F76
:1057380003690C69A3428046C0F28180013C01F1F3
:105748001407A20000F114059146009257F824604E
:105758002A44019255F824200136B2FBF6F6B944E2
:10576800002E3AD04FF0000E3A462846F34652F83B
:1057780004CB03681FFA8CFA4FEA1C4C0AFB06EAB2
:105788000CFB06FC0CEB1A4C1FFA8AFACAEB0B0A44
:105798004FEA1C4E1FFA8CFC1AFA83FACCEB134C16
:1057A8000CEB2A4C1FFA8AFA4AEA0C4A4A454FEA95
:1057B8002C4B40F804ABDAD9009AAB586BB9019A74
:1057C800131FAB421A4602D8C8F8104005E0126809
:1057D800043B002AF8D1013CF3E7404601F0D7F931
:1057E80000282ADB01362B46002057F804CB1A681C
:1057F8001FFA8CF1411A4FEA1C4C11FA82F1CCEBDA
:10580800124202EB214289B210144F4541EA02428A
:1058180043F8042BE9D955F8242005EB840362B931
:10582800043BAB421A4602D8C8F8104005E012689B
:10583800043B002AF8D1013CF3E7304600E00020A1
:1058480003B0BDE8F08F00002DE9F04F456A9BB02A
:1058580082460D910E921493249C8DED020B45B94E
:10586800102000F067FFCAF82400456085600560D5
:10587800C560DAF82430196861B15B684B600122B1
:1058880002FA03F38B60504600F0A0FFDAF82430E8
:1058980000221A600399002905DA012321F0004249
:1058A8002360039201E000232360039C9A4A24F0BA
:1058B80000431B0D1B0593421DD1149F029942F210
:1058C8000F733B6041B9954B954AC4F31300002808
:1058D8000CBF1046184600E09048259F002F00F0A6
:1058E8006585C37813B100F1080300E0C31C259F48
:1058F8003B6000F05BBDDDE9028900224046494675
:105908000023FBF787F8054658B1149F01233B6035
:10591800259F002F00F0478582483860013800F045
:1059280045BD504649EC108B19A918AA01F0AAF9EF
:10593800C4F30A56834656B1C9F3130343F07F51A3
:10594800404641F44011A6F2FF3615951CE0199B1C
:10595800189E1E446FF482639E4209DB02991F332E
:1059680006F212409B1B21FA00F09C40204304E001
:105978006D48029A801B02FA00F0FAF76DFD0127C4
:10598800A1F1F871013E15970022684BFAF726FC41
:105998005BA3D3E90023FAF7D5FD5BA3D3E9002382
:1059A800FAF71EFC044630460D46FAF765FD58A383
:1059B800D3E90023FAF7C6FD02460B4620462946DE
:1059C800FAF70EFC04460D46FBF756F829468146C1
:1059D800002220460023FBF727F858B14846FAF77B
:1059E8004BFD02460B4620462946FBF713F808B93B
:1059F80009F1FF39B9F1160F0DD84D4B03EBC90367
:105A0800D3E90001DDE90223FBF72CF830B109F1F5
:105A1800FF39002700E00127119700E01190189B3B
:105A28009E1B013E069604D57742059700270697E8
:105A380001E000270597B9F1000F07DB069FCDF8B5
:105A480040904F44069700270B9708E0059FC9EB45
:105A580007070597C9F100070B97002710970D9FB7
:105A6800092F28D8052FC4BF043F0D970D9FA7F114
:105A78000203CCBF00250125032B21D8DFE803F062
:105A8800060F0204012702E0012709E000270C970E
:105A98000E9F002F1EDD0A9704973B461FE0002744
:105AA8000C970E9F4F440A9701373B460497012BEA
:105AB800B8BF012313E0012500270D970C9501E0DD
:105AC80001270C974FF0FF370A97049700271223F6
